:100000000C9434000C943E000C943E000C943E0082
:100010000C943E000C943E000C943E000C943E0068
:100020000C943E000C943E000C943E000C943E0058
:100030000C943E000C943E000C943E000C943E0048
:100040000C943E000C943E000C943E000C943E0038
:100050000C943E000C943E000C943E000C943E0028
:100060000C943E000C943E0011241FBECFEFD8E04C
:10007000DEBFCDBF0E9440000C94C30A0C94000068
:10008000112408E00EBF0FEF0DBF07E60093C40078
:1000900000E00093C50008E10093C10006E0009372
:1000A000C20020E030E040E050E0E0E0F1E02193E9
:1000B000319341935083E0E0F1E0219131914191FE
:1000C0005081ECE0F1E02193319341935083ECE0D7
:1000D000F1E081919191A191B0810E94F40924E60F
:1000E00030E040E050E0E0E0F1E0219331934193D3
:1000F0005083E0E0F1E02191319141915081E0E6BF
:10010000F1E02193319341935083E0E6F1E0819156
:100110009191A191B0810E94F409E0E6F1E0219172
:10012000319141915081E4E0F1E021933193419389
:10013000508320E030E040E050E0E8E0F1E021933F
:10014000319341935083E4E0F1E021913191419169
:100150005081ECE8F1E02193319341935083E8E042
:10016000F1E02191319141915081E8EBF1E021934F
:10017000319341935083ECE8F1E021913191419129
:100180005081E8EBF1E06191719181919081260FAE
:10019000371F481F591FE4EEF1E02193319341933B
:1001A0005083E4EEF1E02191319141915081E0E002
:1001B000F1E02193319341935083E0E0F1E021910C
:1001C000319141915081E0E1F2E0219331934193EB
:1001D0005083E0E1F2E081919191A191B0810E9480
:1001E000F409E0E1F2E02191319141915081E4E0A4
:1001F000F1E02193319341935083E0E6F1E02191C6
:10020000319141915081E8E0F1E0219331934193A4
:100210005083E4E0F1E02191319141915081ECE390
:10022000F2E02193319341935083E8E0F1E0219192
:10023000319141915081E8E6F2E02193319341936D
:100240005083ECE3F2E02191319141915081E8E655
:10025000F2E06191719181919081260F371F481FC3
:10026000591FE0E1F1E02193319341935083E0E1A4
:10027000F1E02191319141915081E0E0F1E0219351
:10028000319341935083E0E0F1E02191319141912C
:100290005081E4E1F1E02193319341935083E4E113
:1002A000F1E081919191A191B0810E94F409E4E182
:1002B000F1E02191319141915081E4E0F1E021930D
:1002C000319341935083E0E1F2E0219131914191EA
:1002D0005081E8E0F1E02193319341935083E4E0D1
:1002E000F1E02191319141915081E8E1F1E02193D8
:1002F000319341935083E8E0F1E0219131914191B4
:100300005081ECE1F1E02193319341935083E8E196
:10031000F1E02191319141915081ECE1F1E0619165
:10032000719181919081260F371F481F591FE0E27C
:10033000F1E02193319341935083E0E2F1E0219188
:10034000319141915081E0E0F1E02193319341936B
:100350005083E0E0F1E02191319141915081E4E25C
:10036000F1E02193319341935083E4E2F1E08191F4
:100370009191A191B0810E94F409E4E2F1E0219110
:10038000319141915081E4E0F1E021933193419327
:100390005083E4E1F1E02191319141915081E8E015
:1003A000F1E02193319341935083E4E0F1E0219116
:1003B000319141915081E8E2F1E0219331934193F1
:1003C0005083E8E0F1E02191319141915081ECE2DC
:1003D000F1E02193319341935083E8E2F1E02191E0
:1003E000319141915081ECE2F1E061917191819103
:1003F0009081260F371F481F591FE0E3F1E021933A
:10040000319341935083E0E3F1E0219131914191A7
:100410005081E0E0F1E02193319341935083E0E09B
:10042000F1E02191319141915081E4E3F1E0219398
:10043000319341935083E4E3F1E081919191A19153
:10044000B0810E94F409E4E3F1E0219131914191FE
:100450005081E4E0F1E02193319341935083E4E251
:10046000F1E02191319141915081E8E0F1E0219357
:10047000319341935083E4E0F1E021913191419136
:100480005081E8E3F1E02193319341935083E8E018
:10049000F1E02191319141915081ECE3F1E0219320
:1004A000319341935083E8E3F1E0219131914191FF
:1004B0005081ECE3F1E06191719181919081260F7F
:1004C000371F481F591FE0E4F1E021933193419316
:1004D0005083E0E4F1E02191319141915081E0E0DD
:1004E000F1E02193319341935083E0E0F1E02191D9
:1004F000319141915081E4E4F1E0219331934193B2
:100500005083E4E4F1E081919191A191B0810E9446
:10051000F409E4E4F1E02191319141915081E4E06A
:10052000F1E02193319341935083E4E3F1E0219191
:10053000319141915081E8E0F1E021933193419371
:100540005083E4E0F1E02191319141915081E8E460
:10055000F1E02193319341935083E8E0F1E0219160
:10056000319141915081ECE4F1E021933193419339
:100570005083E8E4F1E02191319141915081ECE424
:10058000F1E06191719181919081260F371F481F91
:10059000591FE0E5F1E02193319341935083E0E569
:1005A000F1E02191319141915081E0E0F1E021931E
:1005B000319341935083E0E0F1E0219131914191F9
:1005C0005081E4E5F1E02193319341935083E4E5D8
:1005D000F1E081919191A191B0810E94F409E4E54B
:1005E000F1E02191319141915081E4E0F1E02193DA
:1005F000319341935083E4E4F1E0219131914191B1
:100600005081E8E0F1E02193319341935083E4E09D
:10061000F1E02191319141915081E8E5F1E02193A0
:10062000319341935083E8E0F1E021913191419180
:100630005081ECE5F1E02193319341935083E8E55B
:10064000F1E02191319141915081ECE5F1E061912E
:10065000719181919081260F371F481F591FE4E641
:10066000F1E02193319341935083E4E6F1E021914D
:10067000319141915081E0E0F1E021933193419338
:100680005083E0E0F1E02191319141915081E8E621
:10069000F1E02193319341935083E8E6F1E08191B9
:1006A0009191A191B0810E94F409E8E6F1E02191D5
:1006B000319141915081E4E0F1E0219331934193F4
:1006C0005083E4E5F1E02191319141915081E8E0DE
:1006D000F1E02193319341935083E4E0F1E02191E3
:1006E000319141915081ECE6F1E0219331934193B6
:1006F0005083E8E0F1E02191319141915081E0E7B0
:10070000F1E02193319341935083ECE6F1E02191A4
:10071000319141915081E0E7F1E0619171918191D6
:100720009081260F371F481F591FE4E7F1E02193FE
:10073000319341935083E4E7F1E02191319141916C
:100740005081E0E0F1E02193319341935083E0E068
:10075000F1E02191319141915081E8E7F1E021935D
:10076000319341935083E8E7F1E081919191A19118
:10077000B0810E94F409E8E7F1E0219131914191C3
:100780005081E4E0F1E02193319341935083E8E616
:10079000F1E02191319141915081E8E0F1E0219324
:1007A000319341935083E4E0F1E021913191419103
:1007B0005081ECE7F1E02193319341935083E8E0DD
:1007C000F1E02191319141915081E0E8F1E02193F4
:1007D000319341935083ECE7F1E0219131914191C4
:1007E0005081E0E8F1E06191719181919081260F53
:1007F000371F481F591FE4E8F1E0219331934193DB
:100800005083E4E8F1E02191319141915081E0E0A1
:10081000F1E02193319341935083E0E0F1E02191A5
:10082000319141915081E8E8F1E021933193419376
:100830005083E8E8F1E081919191A191B0810E940B
:10084000F409E8E8F1E02191319141915081E4E02F
:10085000F1E02193319341935083E8E7F1E0219156
:10086000319141915081E8E0F1E02193319341933E
:100870005083E4E0F1E02191319141915081E0E930
:10088000F1E02193319341935083E8E0F1E021912D
:10089000319141915081E4E9F1E021933193419309
:1008A0005083E0E9F1E02191319141915081E4E9F7
:1008B000F1E06191719181919081260F371F481F5E
:1008C000591FE8E9F1E02193319341935083E8E91E
:1008D000F1E02191319141915081E0E0F1E02193EB
:1008E000319341935083E0E0F1E0219131914191C6
:1008F0005081ECE9F1E02193319341935083ECE98D
:10090000F1E081919191A191B0810E94F409ECE90B
:10091000F1E02191319141915081E4E0F1E02193A6
:10092000319341935083E8E8F1E021913191419175
:100930005081E8E0F1E02193319341935083E4E06A
:10094000F1E02191319141915081E0EAF1E0219370
:10095000319341935083E8E0F1E02191319141914D
:100960005081E4EAF1E02193319341935083E0EA2E
:10097000F1E02191319141915081E4EAF1E06191FE
:10098000719181919081260F371F481F591FE8EA06
:10099000F1E02193319341935083E8EAF1E0219112
:1009A000319141915081E0E0F1E021933193419305
:1009B0005083E0E0F1E02191319141915081ECEAE6
:1009C000F1E02193319341935083ECEAF1E081917E
:1009D0009191A191B0810E94F409ECEAF1E021919A
:1009E000319141915081E4E0F1E0219331934193C1
:1009F0005083ECE9F1E02191319141915081E8E09F
:100A0000F1E02193319341935083E4E0F1E02191AF
:100A1000319141915081E0EBF1E021933193419389
:100A20005083E8E0F1E02191319141915081E4EB74
:100A3000F1E02193319341935083E0EBF1E0219178
:100A4000319141915081E4EBF1E06191719181919B
:100A50009081260F371F481F591FECEBF1E02193BF
:100A6000319341935083ECEBF1E02191319141912D
:100A70005081E0E0F1E02193319341935083E0E035
:100A8000F1E02191319141915081E0ECF1E021932D
:100A9000319341935083E0ECF1E081919191A191E8
:100AA000B0810E94F409E0ECF1E021913191419193
:100AB0005081E4E0F1E02193319341935083ECEADB
:100AC000F1E02191319141915081E8E0F1E02193F1
:100AD000319341935083E4E0F1E0219131914191D0
:100AE0005081E4ECF1E02193319341935083E8E0AD
:100AF000F1E02191319141915081E8ECF1E02193B5
:100B0000319341935083E4ECF1E021913191419193
:100B10005081E8ECF1E06191719181919081260F13
:100B2000371F481F591FECECF1E02193319341939B
:100B30005083ECECF1E02191319141915081E0E062
:100B4000F1E02193319341935083E0E0F1E0219172
:100B5000319141915081E0EDF1E021933193419346
:100B60005083E0EDF1E081919191A191B0810E94DB
:100B7000F409E0EDF1E02191319141915081E4E0FF
:100B8000F1E02193319341935083E0ECF1E0219126
:100B9000319141915081E8E0F1E02193319341930B
:100BA0005083E4E0F1E02191319141915081E4EDF5
:100BB000F1E02193319341935083E8E0F1E02191FA
:100BC000319141915081E8EDF1E0219331934193CE
:100BD0005083E4EDF1E02191319141915081E8EDB4
:100BE000F1E06191719181919081260F371F481F2B
:100BF000591FECEDF1E02193319341935083ECEDDB
:100C0000F1E02191319141915081E0E0F1E02193B7
:100C1000319341935083E0E0F1E021913191419192
:100C20005081E0EEF1E02193319341935083E0EE67
:100C3000F1E081919191A191B0810E94F409E0EEDF
:100C4000F1E02191319141915081E4E0F1E0219373
:100C5000319341935083E0EDF1E021913191419145
:100C60005081E8E0F1E02193319341935083E4E037
:100C7000F1E02191319141915081E8EEF1E0219331
:100C8000319341935083E8E0F1E02191319141911A
:100C90005081ECEEF1E02193319341935083E8EEE3
:100CA000F1E02191319141915081ECEEF1E06191BF
:100CB000719181919081260F371F481F591FE0EFD6
:100CC000F1E02193319341935083E0EFF1E02191E2
:100CD000319141915081E0E0F1E0219331934193D2
:100CE0005083E0E0F1E02191319141915081E4EFB6
:100CF000F1E02193319341935083E4EFF1E081914E
:100D00009191A191B0810E94F409E4EFF1E0219169
:100D1000319141915081E4E0F1E02193319341938D
:100D20005083E0EEF1E02191319141915081E8E072
:100D3000F1E02193319341935083E4E0F1E021917C
:100D4000319141915081E8EFF1E02193319341934A
:100D50005083E8E0F1E02191319141915081ECEF35
:100D6000F1E02193319341935083E8EFF1E0219139
:100D7000319141915081ECEFF1E06191719181915C
:100D80009081260F371F481F591FE0E0F2E02193A2
:100D9000319341935083E0E0F2E021913191419110
:100DA0005081E0E0F1E02193319341935083E0E002
:100DB000F1E02191319141915081E4E0F2E0219301
:100DC000319341935083E4E0F2E081919191A191BC
:100DD000B0810E94F409E4E0F2E021913191419167
:100DE0005081E4E0F1E02193319341935083E4EFAB
:100DF000F1E02191319141915081E8E0F1E02193BE
:100E0000319341935083E4E0F1E02191319141919C
:100E10005081E8E0F2E02193319341935083E8E080
:100E2000F1E02191319141915081ECE0F2E0219388
:100E3000319341935083E8E0F2E021913191419167
:100E40005081ECE0F2E06191719181919081260FE7
:100E5000371F481F591FE4E1F2E02193319341937A
:100E60005083E4E1F2E02191319141915081E0E041
:100E7000F1E02193319341935083E0E0F1E021913F
:100E8000319141915081E8E1F2E021933193419316
:100E90005083E8E1F2E081919191A191B0810E94AB
:100EA000F409E8E1F2E02191319141915081E4E0CF
:100EB000F1E02193319341935083E4E0F2E02191FA
:100EC000319141915081E8E0F1E0219331934193D8
:100ED0005083E4E0F1E02191319141915081ECE1C6
:100EE000F2E02193319341935083E8E0F1E02191C6
:100EF000319141915081E0E2F2E0219331934193AD
:100F00005083ECE1F2E02191319141915081E0E296
:100F1000F2E06191719181919081260F371F481FF6
:100F2000591FE4E2F2E02193319341935083E4E2CC
:100F3000F2E02191319141915081E0E0F1E0219383
:100F4000319341935083E0E0F1E02191319141915F
:100F50005081E8E2F2E02193319341935083E8E23B
:100F6000F2E081919191A191B0810E94F409E8E2AF
:100F7000F2E02191319141915081E4E0F1E021933F
:100F8000319341935083E8E1F2E021913191419115
:100F90005081E8E0F1E02193319341935083E4E004
:100FA000F1E02191319141915081ECE2F2E0219305
:100FB000319341935083E8E0F1E0219131914191E7
:100FC0005081E0E3F2E02193319341935083ECE2CE
:100FD000F2E02191319141915081E0E3F2E06191A1
:100FE000719181919081260F371F481F591FE4E3AB
:100FF000F2E02193319341935083E4E3F2E02191B5
:10100000319141915081E0E0F1E02193319341939E
:101010005083E0E0F1E02191319141915081E8E38A
:10102000F2E02193319341935083E8E3F2E0819120
:101030009191A191B0810E94F409E8E3F2E021913D
:10104000319141915081E4E0F1E02193319341935A
:101050005083E8E2F2E02191319141915081E8E042
:10106000F1E02193319341935083E4E0F1E0219149
:10107000319141915081E0E4F2E021933193419329
:101080005083E8E0F1E02191319141915081E4E415
:10109000F2E02193319341935083E0E4F2E0219117
:1010A000319141915081E4E4F2E06191719181913B
:1010B0009081260F371F481F591FE8E4F2E0219363
:1010C000319341935083E8E4F2E0219131914191D1
:1010D0005081E0E0F1E02193319341935083E0E0CF
:1010E000F1E02191319141915081ECE4F2E02193C2
:1010F000319341935083ECE4F2E081919191A1917D
:10110000B0810E94F409ECE4F2E021913191419127
:101110005081E4E0F1E02193319341935083E8E37F
:10112000F2E02191319141915081E8E0F1E0219389
:10113000319341935083E4E0F1E021913191419169
:101140005081E0E5F2E02193319341935083E8E050
:10115000F1E02191319141915081E4E5F2E0219358
:10116000319341935083E0E5F2E021913191419137
:101170005081E4E5F2E06191719181919081260FB7
:10118000371F481F591FE8E5F2E02193319341933F
:101190005083E8E5F2E02191319141915081E0E006
:1011A000F1E02193319341935083E0E0F1E021910C
:1011B000319141915081ECE5F2E0219331934193DB
:1011C0005083ECE5F2E081919191A191B0810E9470
:1011D000F409ECE5F2E02191319141915081E4E094
:1011E000F1E02193319341935083ECE4F2E02191BB
:1011F000319141915081E8E0F1E0219331934193A5
:101200005083E4E0F1E02191319141915081E0E699
:10121000F2E02193319341935083E8E0F1E0219192
:10122000319141915081E4E6F2E021933193419371
:101230005083E0E6F2E02191319141915081E4E662
:10124000F2E06191719181919081260F371F481FC3
:10125000591FECE6F2E02193319341935083ECE681
:10126000F2E02191319141915081E0E0F1E0219350
:10127000319341935083E0E0F1E02191319141912C
:101280005081E0E7F2E02193319341935083E0E70E
:10129000F2E081919191A191B0810E94F409E0E77F
:1012A000F2E02191319141915081E4E0F1E021930C
:1012B000319341935083ECE5F2E0219131914191DA
:1012C0005081E8E0F1E02193319341935083E4E0D1
:1012D000F1E02191319141915081E4E7F2E02193D5
:1012E000319341935083E8E0F1E0219131914191B4
:1012F0005081E8E7F2E02193319341935083E4E792
:10130000F2E02191319141915081E8E7F2E0619161
:10131000719181919081260F371F481F591FECE76B
:10132000F2E02193319341935083ECE7F2E0219175
:10133000319141915081E0E0F1E02193319341936B
:101340005083E0E0F1E02191319141915081E0E85A
:10135000F2E02193319341935083E0E8F2E08191F0
:101360009191A191B0810E94F409FFCF0F93009158
:10137000C00005FFFCCF8093C6000F9108952F9306
:101380003F934F935F936F937F93282F392F552768
:10139000422F432B21F480E30E94B6091EC0422F46
:1013A000432BA1F0662777278AE09927281739076A
:1013B00030F0281B390B6395C9F77395F7CF80E39D
:1013C000820F8F935395262F372FE9CF503029F076
:1013D0008F910E94B6095A95F9CF7F916F915F91D5
:1013E0004F913F912F9108952F933F934F935F9388
:1013F0006F937F93282F392F4A2F5B2F66277727EC
:1014000084E69927552331F4442321F4332311F43E
:10141000281740F0281B390B490B590B639591F79E
:101420007395F0CF422F862F972F0E94BF098EE22F
:101430000E94B609242F55278AE0281718F0281B88
:101440005395FBCF80E3850F0E94B60980E3820F9E
:101450000E94B6098AE00E94B6097F916F915F9160
:101460004F913F912F910895AF93BF93CF93DF9307
:101470000F93A22FB32FC42FD52F22273327442712
:10148000552700E260FF04C02A0F3B1F4C1F5D1F61
:10149000AA0FBB1FCC1FDD1F969587957795679583
:1014A0000A9581F7AA27BB27CC27DD2764E6772793
:1014B000552331F4442321F4332311F4261760F02B
:1014C000261B370B470B570BA39591F7B39581F765
:1014D000C39571F7D395ECCF2A2F3B2F4C2F5D2F5F
:1014E0000F91DF91CF91BF91AF910895AF93BF93CB
:1014F000CF93DF930F93A22FB32FC42FD52FAA0F13
:10150000BB1FCC1FDD1FAA0FBB1FCC1FDD1F220F6F
:10151000331F441F551F220F331F441F551F220F17
:10152000331F441F551F220F331F441F551F220F07
:10153000331F441F551FA20FB31FC41FD51F220FF7
:10154000331F441F551FA20FB31FC41FD51F882769
:1015500099272227DD2329F4CC2319F4A617B707EE
:1015600040F0A61BB70BC20BD20B839599F793954E
:10157000F1CF282F392F442755270F91DF91CF9195
:0A158000BF91AF910895F894FFCFDA
:00000001FF
