:100000000C9434000C943E000C943E000C943E0082
:100010000C943E000C943E000C943E000C943E0068
:100020000C943E000C943E000C943E000C943E0058
:100030000C943E000C943E000C943E000C943E0048
:100040000C943E000C943E000C943E000C943E0038
:100050000C943E000C943E000C943E000C943E0028
:100060000C943E000C943E0011241FBECFEFD8E04C
:10007000DEBFCDBF0E9440000C9439020C940000FA
:10008000112408E00EBF0FEF0DBF07E60093C40078
:1000900000E00093C50008E10093C10006E0009372
:1000A000C20020E233E040E050E0E8E0F1E02193DC
:1000B00031934193508324E630E040E050E0E4E0A7
:1000C000F1E0219331934193508324E630E040E006
:1000D00050E0E0E0F1E02193319341935083E4E07C
:1000E000F1E02191319141915081E4E1F1E02193DE
:1000F000319341935083E8E0F1E0219131914191B6
:100100005081E8E1F1E02193319341935083E4E1A0
:10011000F1E02191319141915081E8E1F1E061916B
:100120007191819190812617370734F029F020E0F2
:1001300030E040E050E004C024E630E040E050E031
:10014000ECE1F1E02193319341935083ECE1F1E054
:100150002191319141915081822F832B842B852BCA
:1001600009F465C0E0E0F1E02191319141915081C5
:10017000E0E2F1E02193319341935083E4E0F1E038
:100180002191319141915081E4E2F1E02193319349
:1001900041935083E0E2F1E021913191419150810E
:1001A000E4E2F1E061917191819190810E94AA0154
:1001B000E8E2F1E02193319341935083E8E2F1E0EA
:1001C0002191319141915081E0E0F1E0219331930F
:1001D00041935083E4E0F1E02191319141915081CC
:1001E000ECE2F1E02193319341935083ECE2F1E0B2
:1001F000219131914191508164E670E080E090E07E
:10020000260F371F481F591FECE0F1E0219331936F
:1002100041935083ECE0F1E0219131914191508183
:10022000E4E0F1E0219331934193508358CFE0E033
:10023000F1E02191319141915081E0E1F1E0219390
:10024000319341935083E0E1F1E081919191A1914B
:10025000B0810E946A01FFCF0F930091C00005FF9B
:10026000FCCF8093C6000F9108952F933F934F9337
:100270005F936F937F93282F392F5527422F432B5E
:1002800021F480E30E942C011EC0422F432BA1F0D9
:10029000662777278AE099272817390730F0281B27
:1002A000390B6395C9F77395F7CF80E3820F8F936E
:1002B0005395262F372FE9CF503029F08F910E9488
:1002C0002C015A95F9CF7F916F915F914F913F919A
:1002D0002F9108952F933F934F935F936F937F9345
:1002E000282F392F4A2F5B2F6627772784E69927F7
:1002F000552331F4442321F4332311F4281740F01B
:10030000281B390B490B590B639591F77395F0CF67
:10031000422F862F972F0E9435018EE20E942C01DA
:10032000242F55278AE0281718F0281B5395FBCF58
:1003300080E3850F0E942C0180E3820F0E942C0134
:100340008AE00E942C017F916F915F914F913F91C4
:100350002F910895AF93BF93CF93DF930F93A22F65
:10036000B32FC42FD52F222733274427552700E248
:1003700060FF04C02A0F3B1F4C1F5D1FAA0FBB1F4D
:10038000CC1FDD1F96958795779567950A9581F720
:10039000AA27BB27CC27DD2764E67727552331F42E
:1003A000442321F4332311F4261760F0261B370B66
:1003B000470B570BA39591F7B39581F7C39571F749
:1003C000D395ECCF2A2F3B2F4C2F5D2F0F91DF9130
:1003D000CF91BF91AF910895AF93BF93CF93DF9328
:1003E0000F93A22FB32FC42FD52FAA0FBB1FCC1F43
:1003F000DD1FAA0FBB1FCC1FDD1F220F331F441FA1
:10040000551F220F331F441F551F220F331F441F38
:10041000551F220F331F441F551F220F331F441F28
:10042000551FA20FB31FC41FD51F220F331F441F18
:10043000551FA20FB31FC41FD51F88279927222736
:10044000DD2329F4CC2319F4A617B70740F0A61B27
:10045000B70BC20BD20B839599F79395F1CF282F49
:10046000392F442755270F91DF91CF91BF91AF913D
:060470000895F894FFCF8F
:00000001FF
