:100000000C9434000C943E000C943E000C943E0082
:100010000C943E000C943E000C943E000C943E0068
:100020000C943E000C943E000C943E000C943E0058
:100030000C943E000C943E000C943E000C943E0048
:100040000C943E000C943E000C943E000C943E0038
:100050000C943E000C943E000C943E000C943E0028
:100060000C943E000C943E0011241FBECFEFD8E04C
:10007000DEBFCDBF0E9440000C944D050C940000E3
:10008000112408E00EBF0FEF0DBF07E60093C40078
:1000900000E00093C50008E10093C10006E0009372
:1000A000C20024E630E040E050E0ECE3F1E02193D0
:1000B00031934193508322E330E040E050E0E0E4AC
:1000C000F1E0219331934193508329E130E040E006
:1000D00050E0E0E3F1E0219331934193508328EC29
:1000E00030E040E050E0E4E2F1E0219331934193CD
:1000F000508324E630E040E050E0E8E1F1E0219375
:1001000031934193508324E630E040E050E0E0E05A
:10011000F1E02193319341935083E8E1F1E02191A3
:10012000319141915081E8EEF1E021933193419377
:100130005083E4E2F1E02191319141915081ECEE64
:10014000F1E02193319341935083E8EEF1E0219166
:10015000319141915081ECEEF1E061917191819189
:1001600090812617370734F029F020E030E040E096
:1001700050E004C024E630E040E050E0E4E4F1E088
:100180002193319341935083E4E4F1E02191319143
:1001900041915081822F832B842B852B09F465C0DC
:1001A000E0E0F1E02191319141915081E8E4F1E00A
:1001B0002193319341935083E8E1F1E02191319112
:1001C00041915081ECE4F1E02193319341935083CC
:1001D000E8E4F1E02191319141915081ECE4F1E0CA
:1001E00061917191819190810E94BE04E0E5F1E0FE
:1001F0002193319341935083E0E5F1E021913191D6
:1002000041915081E0E0F1E021933193419350839B
:10021000E8E1F1E02191319141915081E4E5F1E093
:100220002193319341935083E4E5F1E021913191A1
:100230004191508164E670E080E090E0260F371F26
:10024000481F591FE8E5F1E0219331934193508312
:10025000E8E5F1E02191319141915081E8E1F1E04F
:10026000219331934193508358CFE0E3F1E0219102
:10027000319141915081ECE5F1E02193319341932B
:100280005083E0E0F1E02191319141915081E0E62D
:10029000F1E02193319341935083ECE5F1E021911A
:1002A000319141915081E0E6F1E06191719181914C
:1002B00090810E940005E4E6F1E02193319341939F
:1002C0005083E4E6F1E02191319141915081ECE0DD
:1002D000F1E02193319341935083ECE3F1E02191DC
:1002E000319141915081E8E6F1E0219331934193BE
:1002F0005083ECE0F1E02191319141915081ECE6A5
:10030000F1E02193319341935083E8E6F1E02191AC
:10031000319141915081ECE6F1E0619171918191CF
:100320009081261B370B480B590BE0E7F1E0219336
:10033000319341935083E0E7F1E021913191419174
:100340005081ECE3F1E0219331934193508326E017
:1003500030E040E050E0E4E3F1E021933193419359
:10036000508320E931E040E050E0E8E2F1E0219301
:1003700031934193508324E630E040E050E0ECE1DB
:10038000F1E0219331934193508324E630E040E043
:1003900050E0E4E0F1E02193319341935083ECE1AC
:1003A000F1E02191319141915081E4E7F1E0219315
:1003B000319341935083E8E2F1E0219131914191F1
:1003C0005081E8E7F1E02193319341935083E4E7D2
:1003D000F1E02191319141915081E8E7F1E06191A3
:1003E0007191819190812617370734F029F020E030
:1003F00030E040E050E004C024E630E040E050E06F
:10040000ECE7F1E02193319341935083ECE7F1E085
:100410002191319141915081822F832B842B852B07
:1004200009F465C0E4E0F1E02191319141915081FE
:10043000E0E8F1E02193319341935083ECE1F1E066
:100440002191319141915081E4E8F1E02193319380
:1004500041935083E0E8F1E0219131914191508145
:10046000E4E8F1E061917191819190810E94BE0474
:10047000E8E8F1E02193319341935083E8E8F1E01B
:100480002191319141915081E4E0F1E02193319348
:1004900041935083ECE1F1E0219131914191508100
:1004A000ECE8F1E02193319341935083ECE8F1E0E3
:1004B000219131914191508164E670E080E090E0BB
:1004C000260F371F481F591FE0E9F1E021933193B0
:1004D00041935083E0E9F1E02191319141915081C4
:1004E000ECE1F1E0219331934193508358CFE4E361
:1004F000F1E02191319141915081E4E9F1E02193C2
:10050000319341935083E4E0F1E0219131914191A5
:100510005081E8E9F1E02193319341935083E4E97C
:10052000F1E02191319141915081E8E9F1E061914F
:100530007191819190810E940005ECE9F1E0219395
:10054000319341935083ECE9F1E021913191419154
:100550005081E0E1F1E02193319341935083ECE34A
:10056000F1E02191319141915081E0EAF1E0219354
:10057000319341935083E0E1F1E021913191419138
:100580005081E4EAF1E02193319341935083E0EA12
:10059000F1E02191319141915081E4EAF1E06191E2
:1005A000719181919081260F371F481F591FE8EAEA
:1005B000F1E02193319341935083E8EAF1E02191F6
:1005C000319141915081ECE3F1E0219331934193DA
:1005D000508321E030E040E050E0E8E3F1E0219397
:1005E00031934193508328E532E040E050E0ECE263
:1005F000F1E0219331934193508324E630E040E0D1
:1006000050E0E0E2F1E0219331934193508324E6FE
:1006100030E040E050E0E8E0F1E021933193419395
:100620005083E0E2F1E02191319141915081ECEA77
:10063000F1E02193319341935083ECE2F1E0219179
:10064000319141915081E0EBF1E02193319341935D
:100650005083ECEAF1E02191319141915081E0EB3E
:10066000F1E061917191819190812617370734F003
:1006700029F020E030E040E050E004C024E630E023
:1006800040E050E0E4EBF1E021933193419350835B
:10069000E4EBF1E02191319141915081822F832B44
:1006A000842B852B09F465C0E8E0F1E021913191BC
:1006B00041915081E8EBF1E02193319341935083D4
:1006C000E0E2F1E02191319141915081ECEBF1E0D8
:1006D0002193319341935083E8EBF1E021913191E3
:1006E00041915081ECEBF1E06191719181919081A8
:1006F0000E94BE04E0ECF1E02193319341935083DA
:10070000E0ECF1E02191319141915081E8E0F1E09C
:100710002193319341935083E0E2F1E021913191B3
:1007200041915081E4ECF1E0219331934193508366
:10073000E4ECF1E0219131914191508164E670E067
:1007400080E090E0260F371F481F591FE8ECF1E0CA
:100750002193319341935083E8ECF1E02191319161
:1007600041915081E0E2F1E0219331934193508334
:1007700058CFE4E3F1E02191319141915081ECECCB
:10078000F1E02193319341935083E8E0F1E021912E
:10079000319141915081E0EDF1E02193319341930A
:1007A0005083ECECF1E02191319141915081E0EDE9
:1007B000F1E061917191819190810E940005E4EDD9
:1007C000F1E02193319341935083E4EDF1E02191E5
:1007D000319141915081E4E1F1E0219331934193D2
:1007E0005083ECE3F1E02191319141915081E8EDAA
:1007F000F1E02193319341935083E0E1F1E02191C5
:10080000319141915081ECEDF1E02193319341938D
:100810005083E8EDF1E02191319141915081ECED6F
:10082000F1E06191719181919081261B370B480B0A
:10083000590BE0EEF1E02193319341935083E0EEC8
:10084000F1E02191319141915081ECE3F1E021936C
:10085000319341935083ECE3F1E021913191419147
:100860005081E4EEF1E02193319341935083E4EE23
:10087000F1E081919191A191B0810E947E04FFCF1E
:100880000F930091C00005FFFCCF8093C6000F912D
:1008900008952F933F934F935F936F937F93282FE8
:1008A000392F5527422F432B21F480E30E94400427
:1008B0001EC0422F432BA1F0662777278AE0992795
:1008C0002817390730F0281B390B6395C9F7739542
:1008D000F7CF80E3820F8F935395262F372FE9CFE1
:1008E000503029F08F910E9440045A95F9CF7F91A2
:1008F0006F915F914F913F912F9108952F933F9367
:100900004F935F936F937F93282F392F4A2F5B2F3D
:100910006627772784E69927552331F4442321F469
:10092000332311F4281740F0281B390B490B590BBE
:10093000639591F77395F0CF422F862F972F0E94E2
:1009400049048EE20E944004242F55278AE028178C
:1009500018F0281B5395FBCF80E3850F0E944004BD
:1009600080E3820F0E9440048AE00E9440047F914D
:100970006F915F914F913F912F910895AF93BF93E6
:10098000CF93DF930F93A22FB32FC42FD52F2227FE
:1009900033274427552700E260FF04C02A0F3B1F7E
:1009A0004C1F5D1FAA0FBB1FCC1FDD1F969587959F
:1009B000779567950A9581F7AA27BB27CC27DD276E
:1009C00064E67727552331F4442321F4332311F4CB
:1009D000261760F0261B370B470B570BA39591F793
:1009E000B39581F7C39571F7D395ECCF2A2F3B2FA1
:1009F0004C2F5D2F0F91DF91CF91BF91AF91089553
:100A0000AF93BF93CF93DF930F93A22FB32FC42F36
:100A1000D52FAA0FBB1FCC1FDD1FAA0FBB1FCC1FDA
:100A2000DD1F220F331F441F551F220F331F441F8A
:100A3000551F220F331F441F551F220F331F441F02
:100A4000551F220F331F441F551FA20FB31FC41F72
:100A5000D51F220F331F441F551FA20FB31FC41FE2
:100A6000D51F882799272227DD2329F4CC2319F4C1
:100A7000A617B70740F0A61BB70BC20BD20B839586
:100A800099F79395F1CF282F392F442755270F91A8
:0E0A9000DF91CF91BF91AF910895F894FFCF01
:00000001FF
